{
  "_format": "hh-sol-artifact-1",
  "contractName": "SportsBettingNFT",
  "sourceName": "contracts/SportsBettingNFT.sol",
  "abi": [
    {
      "inputs": [],
      "stateMutability": "nonpayable",
      "type": "constructor"
    },
    {
      "inputs": [
        {
          "internalType": "address",
          "name": "sender",
          "type": "address"
        },
        {
          "internalType": "uint256",
          "name": "tokenId",
          "type": "uint256"
        },
        {
          "internalType": "address",
          "name": "owner",
          "type": "address"
        }
      ],
      "name": "ERC721IncorrectOwner",
      "type": "error"
    },
    {
      "inputs": [
        {
          "internalType": "address",
          "name": "operator",
          "type": "address"
        },
        {
          "internalType": "uint256",
          "name": "tokenId",
          "type": "uint256"
        }
      ],
      "name": "ERC721InsufficientApproval",
      "type": "error"
    },
    {
      "inputs": [
        {
          "internalType": "address",
          "name": "approver",
          "type": "address"
        }
      ],
      "name": "ERC721InvalidApprover",
      "type": "error"
    },
    {
      "inputs": [
        {
          "internalType": "address",
          "name": "operator",
          "type": "address"
        }
      ],
      "name": "ERC721InvalidOperator",
      "type": "error"
    },
    {
      "inputs": [
        {
          "internalType": "address",
          "name": "owner",
          "type": "address"
        }
      ],
      "name": "ERC721InvalidOwner",
      "type": "error"
    },
    {
      "inputs": [
        {
          "internalType": "address",
          "name": "receiver",
          "type": "address"
        }
      ],
      "name": "ERC721InvalidReceiver",
      "type": "error"
    },
    {
      "inputs": [
        {
          "internalType": "address",
          "name": "sender",
          "type": "address"
        }
      ],
      "name": "ERC721InvalidSender",
      "type": "error"
    },
    {
      "inputs": [
        {
          "internalType": "uint256",
          "name": "tokenId",
          "type": "uint256"
        }
      ],
      "name": "ERC721NonexistentToken",
      "type": "error"
    },
    {
      "inputs": [
        {
          "internalType": "address",
          "name": "owner",
          "type": "address"
        }
      ],
      "name": "OwnableInvalidOwner",
      "type": "error"
    },
    {
      "inputs": [
        {
          "internalType": "address",
          "name": "account",
          "type": "address"
        }
      ],
      "name": "OwnableUnauthorizedAccount",
      "type": "error"
    },
    {
      "anonymous": false,
      "inputs": [
        {
          "indexed": true,
          "internalType": "address",
          "name": "owner",
          "type": "address"
        },
        {
          "indexed": true,
          "internalType": "address",
          "name": "approved",
          "type": "address"
        },
        {
          "indexed": true,
          "internalType": "uint256",
          "name": "tokenId",
          "type": "uint256"
        }
      ],
      "name": "Approval",
      "type": "event"
    },
    {
      "anonymous": false,
      "inputs": [
        {
          "indexed": true,
          "internalType": "address",
          "name": "owner",
          "type": "address"
        },
        {
          "indexed": true,
          "internalType": "address",
          "name": "operator",
          "type": "address"
        },
        {
          "indexed": false,
          "internalType": "bool",
          "name": "approved",
          "type": "bool"
        }
      ],
      "name": "ApprovalForAll",
      "type": "event"
    },
    {
      "anonymous": false,
      "inputs": [
        {
          "indexed": true,
          "internalType": "uint256",
          "name": "tokenId",
          "type": "uint256"
        },
        {
          "indexed": true,
          "internalType": "address",
          "name": "bettor",
          "type": "address"
        },
        {
          "indexed": false,
          "internalType": "string",
          "name": "metadataURI",
          "type": "string"
        }
      ],
      "name": "BetNFTMinted",
      "type": "event"
    },
    {
      "anonymous": false,
      "inputs": [
        {
          "indexed": true,
          "internalType": "address",
          "name": "previousOwner",
          "type": "address"
        },
        {
          "indexed": true,
          "internalType": "address",
          "name": "newOwner",
          "type": "address"
        }
      ],
      "name": "OwnershipTransferred",
      "type": "event"
    },
    {
      "anonymous": false,
      "inputs": [
        {
          "indexed": true,
          "internalType": "uint256",
          "name": "tokenId",
          "type": "uint256"
        },
        {
          "indexed": false,
          "internalType": "string",
          "name": "newURI",
          "type": "string"
        }
      ],
      "name": "TokenURIUpdated",
      "type": "event"
    },
    {
      "anonymous": false,
      "inputs": [
        {
          "indexed": true,
          "internalType": "address",
          "name": "from",
          "type": "address"
        },
        {
          "indexed": true,
          "internalType": "address",
          "name": "to",
          "type": "address"
        },
        {
          "indexed": true,
          "internalType": "uint256",
          "name": "tokenId",
          "type": "uint256"
        }
      ],
      "name": "Transfer",
      "type": "event"
    },
    {
      "inputs": [
        {
          "internalType": "address",
          "name": "to",
          "type": "address"
        },
        {
          "internalType": "uint256",
          "name": "tokenId",
          "type": "uint256"
        }
      ],
      "name": "approve",
      "outputs": [],
      "stateMutability": "nonpayable",
      "type": "function"
    },
    {
      "inputs": [
        {
          "internalType": "address",
          "name": "owner",
          "type": "address"
        }
      ],
      "name": "balanceOf",
      "outputs": [
        {
          "internalType": "uint256",
          "name": "",
          "type": "uint256"
        }
      ],
      "stateMutability": "view",
      "type": "function"
    },
    {
      "inputs": [
        {
          "internalType": "uint256",
          "name": "tokenId",
          "type": "uint256"
        }
      ],
      "name": "getApproved",
      "outputs": [
        {
          "internalType": "address",
          "name": "",
          "type": "address"
        }
      ],
      "stateMutability": "view",
      "type": "function"
    },
    {
      "inputs": [],
      "name": "getCurrentTokenId",
      "outputs": [
        {
          "internalType": "uint256",
          "name": "",
          "type": "uint256"
        }
      ],
      "stateMutability": "view",
      "type": "function"
    },
    {
      "inputs": [
        {
          "internalType": "address",
          "name": "owner",
          "type": "address"
        },
        {
          "internalType": "address",
          "name": "operator",
          "type": "address"
        }
      ],
      "name": "isApprovedForAll",
      "outputs": [
        {
          "internalType": "bool",
          "name": "",
          "type": "bool"
        }
      ],
      "stateMutability": "view",
      "type": "function"
    },
    {
      "inputs": [
        {
          "internalType": "address",
          "name": "to",
          "type": "address"
        },
        {
          "internalType": "string",
          "name": "metadataURI",
          "type": "string"
        }
      ],
      "name": "mintBetNFT",
      "outputs": [
        {
          "internalType": "uint256",
          "name": "",
          "type": "uint256"
        }
      ],
      "stateMutability": "nonpayable",
      "type": "function"
    },
    {
      "inputs": [],
      "name": "name",
      "outputs": [
        {
          "internalType": "string",
          "name": "",
          "type": "string"
        }
      ],
      "stateMutability": "view",
      "type": "function"
    },
    {
      "inputs": [],
      "name": "owner",
      "outputs": [
        {
          "internalType": "address",
          "name": "",
          "type": "address"
        }
      ],
      "stateMutability": "view",
      "type": "function"
    },
    {
      "inputs": [
        {
          "internalType": "uint256",
          "name": "tokenId",
          "type": "uint256"
        }
      ],
      "name": "ownerOf",
      "outputs": [
        {
          "internalType": "address",
          "name": "",
          "type": "address"
        }
      ],
      "stateMutability": "view",
      "type": "function"
    },
    {
      "inputs": [],
      "name": "renounceOwnership",
      "outputs": [],
      "stateMutability": "nonpayable",
      "type": "function"
    },
    {
      "inputs": [
        {
          "internalType": "address",
          "name": "from",
          "type": "address"
        },
        {
          "internalType": "address",
          "name": "to",
          "type": "address"
        },
        {
          "internalType": "uint256",
          "name": "tokenId",
          "type": "uint256"
        }
      ],
      "name": "safeTransferFrom",
      "outputs": [],
      "stateMutability": "nonpayable",
      "type": "function"
    },
    {
      "inputs": [
        {
          "internalType": "address",
          "name": "from",
          "type": "address"
        },
        {
          "internalType": "address",
          "name": "to",
          "type": "address"
        },
        {
          "internalType": "uint256",
          "name": "tokenId",
          "type": "uint256"
        },
        {
          "internalType": "bytes",
          "name": "data",
          "type": "bytes"
        }
      ],
      "name": "safeTransferFrom",
      "outputs": [],
      "stateMutability": "nonpayable",
      "type": "function"
    },
    {
      "inputs": [
        {
          "internalType": "address",
          "name": "operator",
          "type": "address"
        },
        {
          "internalType": "bool",
          "name": "approved",
          "type": "bool"
        }
      ],
      "name": "setApprovalForAll",
      "outputs": [],
      "stateMutability": "nonpayable",
      "type": "function"
    },
    {
      "inputs": [
        {
          "internalType": "uint256",
          "name": "tokenId",
          "type": "uint256"
        },
        {
          "internalType": "string",
          "name": "newURI",
          "type": "string"
        }
      ],
      "name": "setTokenURI",
      "outputs": [],
      "stateMutability": "nonpayable",
      "type": "function"
    },
    {
      "inputs": [
        {
          "internalType": "bytes4",
          "name": "interfaceId",
          "type": "bytes4"
        }
      ],
      "name": "supportsInterface",
      "outputs": [
        {
          "internalType": "bool",
          "name": "",
          "type": "bool"
        }
      ],
      "stateMutability": "view",
      "type": "function"
    },
    {
      "inputs": [],
      "name": "symbol",
      "outputs": [
        {
          "internalType": "string",
          "name": "",
          "type": "string"
        }
      ],
      "stateMutability": "view",
      "type": "function"
    },
    {
      "inputs": [
        {
          "internalType": "uint256",
          "name": "tokenId",
          "type": "uint256"
        }
      ],
      "name": "tokenURI",
      "outputs": [
        {
          "internalType": "string",
          "name": "",
          "type": "string"
        }
      ],
      "stateMutability": "view",
      "type": "function"
    },
    {
      "inputs": [
        {
          "internalType": "address",
          "name": "from",
          "type": "address"
        },
        {
          "internalType": "address",
          "name": "to",
          "type": "address"
        },
        {
          "internalType": "uint256",
          "name": "tokenId",
          "type": "uint256"
        }
      ],
      "name": "transferFrom",
      "outputs": [],
      "stateMutability": "nonpayable",
      "type": "function"
    },
    {
      "inputs": [
        {
          "internalType": "address",
          "name": "newOwner",
          "type": "address"
        }
      ],
      "name": "transferOwnership",
      "outputs": [],
      "stateMutability": "nonpayable",
      "type": "function"
    }
  ],
  "bytecode": "0x60806040523480156200001157600080fd5b50336040518060400160405280601081526020016f14dc1bdc9d1cd0995d1d1a5b99d3919560821b8152506040518060400160405280600581526020016414d093919560da1b81525081600090816200006b9190620001ba565b5060016200007a8282620001ba565b5050506001600160a01b038116620000ac57604051631e4fbdf760e01b81526000600482015260240160405180910390fd5b620000b781620000c3565b50600060075562000286565b600680546001600160a01b038381166001600160a01b0319831681179093556040519116919082907f8be0079c531659141344cd1fd0a4f28419497f9722a3daafe3b4186f6b6457e090600090a35050565b634e487b7160e01b600052604160045260246000fd5b600181811c908216806200014057607f821691505b6020821081036200016157634e487b7160e01b600052602260045260246000fd5b50919050565b601f821115620001b557600081815260208120601f850160051c81016020861015620001905750805b601f850160051c820191505b81811015620001b1578281556001016200019c565b5050505b505050565b81516001600160401b03811115620001d657620001d662000115565b620001ee81620001e784546200012b565b8462000167565b602080601f8311600181146200022657600084156200020d5750858301515b600019600386901b1c1916600185901b178555620001b1565b600085815260208120601f198616915b82811015620002575788860151825594840194600190910190840162000236565b5085821015620002765787850151600019600388901b60f8161c191681555b5050505050600190811b01905550565b61131980620002966000396000f3fe608060405234801561001057600080fd5b50600436106101215760003560e01c806370a08231116100ad578063b88d4fde11610071578063b88d4fde14610248578063c4302dba1461025b578063c87b56dd1461026e578063e985e9c514610281578063f2fde38b1461029457600080fd5b806370a0823114610201578063715018a6146102145780638da5cb5b1461021c57806395d89b411461022d578063a22cb4651461023557600080fd5b8063162094c4116100f4578063162094c4146101a357806323b872dd146101b657806342842e0e146101c957806356189236146101dc5780636352211e146101ee57600080fd5b806301ffc9a71461012657806306fdde031461014e578063081812fc14610163578063095ea7b31461018e575b600080fd5b610139610134366004610dd9565b6102a7565b60405190151581526020015b60405180910390f35b6101566102b8565b6040516101459190610e43565b610176610171366004610e56565b61034a565b6040516001600160a01b039091168152602001610145565b6101a161019c366004610e8b565b610373565b005b6101a16101b1366004610f61565b610382565b6101a16101c4366004610fa8565b610450565b6101a16101d7366004610fa8565b6104db565b6007545b604051908152602001610145565b6101766101fc366004610e56565b6104fb565b6101e061020f366004610fe4565b610506565b6101a161054e565b6006546001600160a01b0316610176565b610156610562565b6101a1610243366004610fff565b610571565b6101a161025636600461103b565b61057c565b6101e06102693660046110b7565b610594565b61015661027c366004610e56565b610613565b61013961028f3660046110ef565b610732565b6101a16102a2366004610fe4565b610760565b60006102b28261079e565b92915050565b6060600080546102c790611122565b80601f01602080910402602001604051908101604052809291908181526020018280546102f390611122565b80156103405780601f1061031557610100808354040283529160200191610340565b820191906000526020600020905b81548152906001019060200180831161032357829003601f168201915b5050505050905090565b6000610355826107ee565b506000828152600460205260409020546001600160a01b03166102b2565b61037e828233610827565b5050565b61038a610834565b6000828152600260205260409020546001600160a01b031661040a5760405162461bcd60e51b815260206004820152602e60248201527f53706f72747342657474696e674e46543a2055524920736574206f66206e6f6e60448201526d32bc34b9ba32b73a103a37b5b2b760911b60648201526084015b60405180910390fd5b6104148282610861565b817f931f495b9a8e5d8e61946ea5d61e021f636cfe213a801f97589c18c152e408bd826040516104449190610e43565b60405180910390a25050565b6001600160a01b03821661047a57604051633250574960e11b815260006004820152602401610401565b6000610487838333610879565b9050836001600160a01b0316816001600160a01b0316146104d5576040516364283d7b60e01b81526001600160a01b0380861660048301526024820184905282166044820152606401610401565b50505050565b6104f68383836040518060200160405280600081525061057c565b505050565b60006102b2826107ee565b60006001600160a01b038216610532576040516322718ad960e21b815260006004820152602401610401565b506001600160a01b031660009081526003602052604090205490565b610556610834565b6105606000610972565b565b6060600180546102c790611122565b61037e3383836109c4565b610587848484610450565b6104d53385858585610a63565b600061059e610834565b600780549060006105ae8361115c565b90915550506007546105c08482610b8e565b6105ca8184610861565b836001600160a01b0316817f9e0d1d328d780397c2c4549409c433c9f2a5d18c7d2e71ac40748c95d7ff1563856040516106049190610e43565b60405180910390a39392505050565b6000818152600260205260409020546060906001600160a01b03166106945760405162461bcd60e51b815260206004820152603160248201527f53706f72747342657474696e674e46543a2055524920717565727920666f72206044820152703737b732bc34b9ba32b73a103a37b5b2b760791b6064820152608401610401565b600082815260086020526040902080546106ad90611122565b80601f01602080910402602001604051908101604052809291908181526020018280546106d990611122565b80156107265780601f106106fb57610100808354040283529160200191610726565b820191906000526020600020905b81548152906001019060200180831161070957829003601f168201915b50505050509050919050565b6001600160a01b03918216600090815260056020908152604080832093909416825291909152205460ff1690565b610768610834565b6001600160a01b03811661079257604051631e4fbdf760e01b815260006004820152602401610401565b61079b81610972565b50565b60006001600160e01b031982166380ac58cd60e01b14806107cf57506001600160e01b03198216635b5e139f60e01b145b806102b257506301ffc9a760e01b6001600160e01b03198316146102b2565b6000818152600260205260408120546001600160a01b0316806102b257604051637e27328960e01b815260048101849052602401610401565b6104f68383836001610bf3565b6006546001600160a01b031633146105605760405163118cdaa760e01b8152336004820152602401610401565b60008281526008602052604090206104f682826111c9565b6000828152600260205260408120546001600160a01b03908116908316156108a6576108a6818486610cf9565b6001600160a01b038116156108e4576108c3600085600080610bf3565b6001600160a01b038116600090815260036020526040902080546000190190555b6001600160a01b03851615610913576001600160a01b0385166000908152600360205260409020805460010190555b60008481526002602052604080822080546001600160a01b0319166001600160a01b0389811691821790925591518793918516917fddf252ad1be2c89b69c2b068fc378daa952ba7f163c4a11628f55a4df523b3ef91a4949350505050565b600680546001600160a01b038381166001600160a01b0319831681179093556040519116919082907f8be0079c531659141344cd1fd0a4f28419497f9722a3daafe3b4186f6b6457e090600090a35050565b6001600160a01b0382166109f657604051630b61174360e31b81526001600160a01b0383166004820152602401610401565b6001600160a01b03838116600081815260056020908152604080832094871680845294825291829020805460ff191686151590811790915591519182527f17307eab39ab6107e8899845ad3d59bd9653f200f220920489ca2b5937696c31910160405180910390a3505050565b6001600160a01b0383163b15610b8757604051630a85bd0160e11b81526001600160a01b0384169063150b7a0290610aa5908890889087908790600401611289565b6020604051808303816000875af1925050508015610ae0575060408051601f3d908101601f19168201909252610add918101906112c6565b60015b610b49573d808015610b0e576040519150601f19603f3d011682016040523d82523d6000602084013e610b13565b606091505b508051600003610b4157604051633250574960e11b81526001600160a01b0385166004820152602401610401565b805160208201fd5b6001600160e01b03198116630a85bd0160e11b14610b8557604051633250574960e11b81526001600160a01b0385166004820152602401610401565b505b5050505050565b6001600160a01b038216610bb857604051633250574960e11b815260006004820152602401610401565b6000610bc683836000610879565b90506001600160a01b038116156104f6576040516339e3563760e11b815260006004820152602401610401565b8080610c0757506001600160a01b03821615155b15610cc9576000610c17846107ee565b90506001600160a01b03831615801590610c435750826001600160a01b0316816001600160a01b031614155b8015610c565750610c548184610732565b155b15610c7f5760405163a9fbf51f60e01b81526001600160a01b0384166004820152602401610401565b8115610cc75783856001600160a01b0316826001600160a01b03167f8c5be1e5ebec7d5bd14f71427d1e84f3dd0314c0f7b2291e5b200ac8c7c3b92560405160405180910390a45b505b5050600090815260046020526040902080546001600160a01b0319166001600160a01b0392909216919091179055565b610d04838383610d5d565b6104f6576001600160a01b038316610d3257604051637e27328960e01b815260048101829052602401610401565b60405163177e802f60e01b81526001600160a01b038316600482015260248101829052604401610401565b60006001600160a01b03831615801590610dbb5750826001600160a01b0316846001600160a01b03161480610d975750610d978484610732565b80610dbb57506000828152600460205260409020546001600160a01b038481169116145b949350505050565b6001600160e01b03198116811461079b57600080fd5b600060208284031215610deb57600080fd5b8135610df681610dc3565b9392505050565b6000815180845260005b81811015610e2357602081850181015186830182015201610e07565b506000602082860101526020601f19601f83011685010191505092915050565b602081526000610df66020830184610dfd565b600060208284031215610e6857600080fd5b5035919050565b80356001600160a01b0381168114610e8657600080fd5b919050565b60008060408385031215610e9e57600080fd5b610ea783610e6f565b946020939093013593505050565b634e487b7160e01b600052604160045260246000fd5b600067ffffffffffffffff80841115610ee657610ee6610eb5565b604051601f8501601f19908116603f01168101908282118183101715610f0e57610f0e610eb5565b81604052809350858152868686011115610f2757600080fd5b858560208301376000602087830101525050509392505050565b600082601f830112610f5257600080fd5b610df683833560208501610ecb565b60008060408385031215610f7457600080fd5b82359150602083013567ffffffffffffffff811115610f9257600080fd5b610f9e85828601610f41565b9150509250929050565b600080600060608486031215610fbd57600080fd5b610fc684610e6f565b9250610fd460208501610e6f565b9150604084013590509250925092565b600060208284031215610ff657600080fd5b610df682610e6f565b6000806040838503121561101257600080fd5b61101b83610e6f565b91506020830135801515811461103057600080fd5b809150509250929050565b6000806000806080858703121561105157600080fd5b61105a85610e6f565b935061106860208601610e6f565b925060408501359150606085013567ffffffffffffffff81111561108b57600080fd5b8501601f8101871361109c57600080fd5b6110ab87823560208401610ecb565b91505092959194509250565b600080604083850312156110ca57600080fd5b6110d383610e6f565b9150602083013567ffffffffffffffff811115610f9257600080fd5b6000806040838503121561110257600080fd5b61110b83610e6f565b915061111960208401610e6f565b90509250929050565b600181811c9082168061113657607f821691505b60208210810361115657634e487b7160e01b600052602260045260246000fd5b50919050565b60006001820161117c57634e487b7160e01b600052601160045260246000fd5b5060010190565b601f8211156104f657600081815260208120601f850160051c810160208610156111aa5750805b601f850160051c820191505b81811015610b85578281556001016111b6565b815167ffffffffffffffff8111156111e3576111e3610eb5565b6111f7816111f18454611122565b84611183565b602080601f83116001811461122c57600084156112145750858301515b600019600386901b1c1916600185901b178555610b85565b600085815260208120601f198616915b8281101561125b5788860151825594840194600190910190840161123c565b50858210156112795787850151600019600388901b60f8161c191681555b5050505050600190811b01905550565b6001600160a01b03858116825284166020820152604081018390526080606082018190526000906112bc90830184610dfd565b9695505050505050565b6000602082840312156112d857600080fd5b8151610df681610dc356fea26469706673582212206dd96a08cf3beb6afbf69f1d0bf57d0be430c8d60e096d37eee861c338129cf664736f6c63430008140033",
  "linkReferences": {},
  "deployedLinkReferences": {}
}