{
  "_format": "hh-sol-artifact-1",
  "contractName": "SportsBetting",
  "sourceName": "contracts/SportsBetting.sol",
  "abi": [
    {
      "inputs": [
        {
          "internalType": "address",
          "name": "_nftContract",
          "type": "address"
        }
      ],
      "stateMutability": "nonpayable",
      "type": "constructor"
    },
    {
      "anonymous": false,
      "inputs": [
        {
          "indexed": true,
          "internalType": "uint256",
          "name": "betId",
          "type": "uint256"
        },
        {
          "indexed": true,
          "internalType": "address",
          "name": "acceptor",
          "type": "address"
        },
        {
          "indexed": false,
          "internalType": "string",
          "name": "acceptorSelection",
          "type": "string"
        }
      ],
      "name": "BetAccepted",
      "type": "event"
    },
    {
      "anonymous": false,
      "inputs": [
        {
          "indexed": true,
          "internalType": "uint256",
          "name": "betId",
          "type": "uint256"
        }
      ],
      "name": "BetCancelled",
      "type": "event"
    },
    {
      "anonymous": false,
      "inputs": [
        {
          "indexed": true,
          "internalType": "uint256",
          "name": "betId",
          "type": "uint256"
        },
        {
          "indexed": true,
          "internalType": "string",
          "name": "matchId",
          "type": "string"
        },
        {
          "indexed": true,
          "internalType": "address",
          "name": "creator",
          "type": "address"
        },
        {
          "indexed": false,
          "internalType": "uint256",
          "name": "amount",
          "type": "uint256"
        },
        {
          "indexed": false,
          "internalType": "string",
          "name": "creatorSelection",
          "type": "string"
        },
        {
          "indexed": false,
          "internalType": "uint256",
          "name": "nftTokenId",
          "type": "uint256"
        }
      ],
      "name": "BetCreated",
      "type": "event"
    },
    {
      "anonymous": false,
      "inputs": [
        {
          "indexed": true,
          "internalType": "uint256",
          "name": "betId",
          "type": "uint256"
        },
        {
          "indexed": false,
          "internalType": "string",
          "name": "winner",
          "type": "string"
        },
        {
          "indexed": false,
          "internalType": "address",
          "name": "winnerAddress",
          "type": "address"
        },
        {
          "indexed": false,
          "internalType": "uint256",
          "name": "payout",
          "type": "uint256"
        }
      ],
      "name": "BetResolved",
      "type": "event"
    },
    {
      "inputs": [
        {
          "internalType": "uint256",
          "name": "betId",
          "type": "uint256"
        },
        {
          "internalType": "string",
          "name": "acceptorSelection",
          "type": "string"
        },
        {
          "internalType": "string",
          "name": "newMetadataURI",
          "type": "string"
        }
      ],
      "name": "acceptBet",
      "outputs": [],
      "stateMutability": "payable",
      "type": "function"
    },
    {
      "inputs": [
        {
          "internalType": "uint256",
          "name": "",
          "type": "uint256"
        }
      ],
      "name": "bets",
      "outputs": [
        {
          "internalType": "uint256",
          "name": "id",
          "type": "uint256"
        },
        {
          "internalType": "string",
          "name": "matchId",
          "type": "string"
        },
        {
          "internalType": "address",
          "name": "creator",
          "type": "address"
        },
        {
          "internalType": "address",
          "name": "acceptor",
          "type": "address"
        },
        {
          "internalType": "uint256",
          "name": "amount",
          "type": "uint256"
        },
        {
          "internalType": "enum SportsBetting.BetStatus",
          "name": "status",
          "type": "uint8"
        },
        {
          "internalType": "string",
          "name": "creatorSelection",
          "type": "string"
        },
        {
          "internalType": "string",
          "name": "acceptorSelection",
          "type": "string"
        },
        {
          "internalType": "string",
          "name": "winner",
          "type": "string"
        },
        {
          "internalType": "uint256",
          "name": "nftTokenId",
          "type": "uint256"
        },
        {
          "internalType": "uint256",
          "name": "createdAt",
          "type": "uint256"
        },
        {
          "internalType": "uint256",
          "name": "resolvedAt",
          "type": "uint256"
        }
      ],
      "stateMutability": "view",
      "type": "function"
    },
    {
      "inputs": [
        {
          "internalType": "uint256",
          "name": "betId",
          "type": "uint256"
        }
      ],
      "name": "cancelBet",
      "outputs": [],
      "stateMutability": "nonpayable",
      "type": "function"
    },
    {
      "inputs": [
        {
          "internalType": "string",
          "name": "matchId",
          "type": "string"
        },
        {
          "internalType": "string",
          "name": "creatorSelection",
          "type": "string"
        },
        {
          "internalType": "string",
          "name": "metadataURI",
          "type": "string"
        }
      ],
      "name": "createBet",
      "outputs": [
        {
          "internalType": "uint256",
          "name": "",
          "type": "uint256"
        }
      ],
      "stateMutability": "payable",
      "type": "function"
    },
    {
      "inputs": [],
      "name": "emergencyWithdraw",
      "outputs": [],
      "stateMutability": "nonpayable",
      "type": "function"
    },
    {
      "inputs": [
        {
          "internalType": "uint256",
          "name": "betId",
          "type": "uint256"
        }
      ],
      "name": "getBet",
      "outputs": [
        {
          "components": [
            {
              "internalType": "uint256",
              "name": "id",
              "type": "uint256"
            },
            {
              "internalType": "string",
              "name": "matchId",
              "type": "string"
            },
            {
              "internalType": "address",
              "name": "creator",
              "type": "address"
            },
            {
              "internalType": "address",
              "name": "acceptor",
              "type": "address"
            },
            {
              "internalType": "uint256",
              "name": "amount",
              "type": "uint256"
            },
            {
              "internalType": "enum SportsBetting.BetStatus",
              "name": "status",
              "type": "uint8"
            },
            {
              "internalType": "string",
              "name": "creatorSelection",
              "type": "string"
            },
            {
              "internalType": "string",
              "name": "acceptorSelection",
              "type": "string"
            },
            {
              "internalType": "string",
              "name": "winner",
              "type": "string"
            },
            {
              "internalType": "uint256",
              "name": "nftTokenId",
              "type": "uint256"
            },
            {
              "internalType": "uint256",
              "name": "createdAt",
              "type": "uint256"
            },
            {
              "internalType": "uint256",
              "name": "resolvedAt",
              "type": "uint256"
            }
          ],
          "internalType": "struct SportsBetting.Bet",
          "name": "",
          "type": "tuple"
        }
      ],
      "stateMutability": "view",
      "type": "function"
    },
    {
      "inputs": [],
      "name": "getContractBalance",
      "outputs": [
        {
          "internalType": "uint256",
          "name": "",
          "type": "uint256"
        }
      ],
      "stateMutability": "view",
      "type": "function"
    },
    {
      "inputs": [],
      "name": "getCurrentBetId",
      "outputs": [
        {
          "internalType": "uint256",
          "name": "",
          "type": "uint256"
        }
      ],
      "stateMutability": "view",
      "type": "function"
    },
    {
      "inputs": [
        {
          "internalType": "string",
          "name": "matchId",
          "type": "string"
        }
      ],
      "name": "getMatchBets",
      "outputs": [
        {
          "internalType": "uint256[]",
          "name": "",
          "type": "uint256[]"
        }
      ],
      "stateMutability": "view",
      "type": "function"
    },
    {
      "inputs": [
        {
          "internalType": "address",
          "name": "user",
          "type": "address"
        }
      ],
      "name": "getUserBets",
      "outputs": [
        {
          "internalType": "uint256[]",
          "name": "",
          "type": "uint256[]"
        }
      ],
      "stateMutability": "view",
      "type": "function"
    },
    {
      "inputs": [
        {
          "internalType": "string",
          "name": "",
          "type": "string"
        },
        {
          "internalType": "uint256",
          "name": "",
          "type": "uint256"
        }
      ],
      "name": "matchBets",
      "outputs": [
        {
          "internalType": "uint256",
          "name": "",
          "type": "uint256"
        }
      ],
      "stateMutability": "view",
      "type": "function"
    },
    {
      "inputs": [],
      "name": "nftContract",
      "outputs": [
        {
          "internalType": "contract SportsBettingNFT",
          "name": "",
          "type": "address"
        }
      ],
      "stateMutability": "view",
      "type": "function"
    },
    {
      "inputs": [],
      "name": "owner",
      "outputs": [
        {
          "internalType": "address",
          "name": "",
          "type": "address"
        }
      ],
      "stateMutability": "view",
      "type": "function"
    },
    {
      "inputs": [
        {
          "internalType": "uint256",
          "name": "betId",
          "type": "uint256"
        },
        {
          "internalType": "string",
          "name": "winningSelection",
          "type": "string"
        },
        {
          "internalType": "string",
          "name": "finalMetadataURI",
          "type": "string"
        }
      ],
      "name": "resolveBet",
      "outputs": [],
      "stateMutability": "nonpayable",
      "type": "function"
    },
    {
      "inputs": [
        {
          "internalType": "address",
          "name": "",
          "type": "address"
        },
        {
          "internalType": "uint256",
          "name": "",
          "type": "uint256"
        }
      ],
      "name": "userBets",
      "outputs": [
        {
          "internalType": "uint256",
          "name": "",
          "type": "uint256"
        }
      ],
      "stateMutability": "view",
      "type": "function"
    }
  ],
  "bytecode": "0x608060405234801561001057600080fd5b50604051620021773803806200217783398101604081905261003191610067565b60018054336001600160a01b031991821617909155600080549091166001600160a01b0392909216919091178155600255610097565b60006020828403121561007957600080fd5b81516001600160a01b038116811461009057600080fd5b9392505050565b6120d080620000a76000396000f3fe6080604052600436106100e85760003560e01c80636f9fb98a1161008a578063a18bdd4f11610059578063a18bdd4f14610289578063d56d229d146102a9578063db2e21bc146102c9578063ea0186d7146102de57600080fd5b80636f9fb98a146101fe57806373be1b70146102115780638068aa68146102315780638da5cb5b1461025157600080fd5b80631844300b116100c65780631844300b1461015957806322af00fa146101865780632d56657d146101be578063357401f5146101de57600080fd5b806302489179146100ed578063061e494f146101025780630ce7bdea14610138575b600080fd5b6101006100fb366004611905565b6102f3565b005b34801561010e57600080fd5b5061012261011d366004611972565b6105d7565b60405161012f9190611a13565b60405180910390f35b61014b610146366004611b15565b610905565b60405190815260200161012f565b34801561016557600080fd5b50610179610174366004611b64565b610d08565b60405161012f9190611ba1565b34801561019257600080fd5b506101a66101a1366004611972565b610d78565b60405161012f9c9b9a99989796959493929190611be5565b3480156101ca57600080fd5b506101796101d9366004611cab565b611006565b3480156101ea57600080fd5b506101006101f9366004611972565b611070565b34801561020a57600080fd5b504761014b565b34801561021d57600080fd5b5061010061022c366004611905565b61127e565b34801561023d57600080fd5b5061014b61024c366004611ccd565b61169f565b34801561025d57600080fd5b50600154610271906001600160a01b031681565b6040516001600160a01b03909116815260200161012f565b34801561029557600080fd5b5061014b6102a4366004611cf7565b6116d0565b3480156102b557600080fd5b50600054610271906001600160a01b031681565b3480156102d557600080fd5b506101006116fb565b3480156102ea57600080fd5b5060025461014b565b8260008111801561030657506002548111155b61032b5760405162461bcd60e51b815260040161032290611d3c565b60405180910390fd5b600084815260036020526040812090600582015460ff166003811115610353576103536119db565b146103a05760405162461bcd60e51b815260206004820152601e60248201527f53706f72747342657474696e673a20626574206973206e6f74206f70656e00006044820152606401610322565b60028101546001600160a01b031633036104085760405162461bcd60e51b8152602060048201526024808201527f53706f72747342657474696e673a2063616e6e6f7420616363657074206f776e6044820152630818995d60e21b6064820152608401610322565b806004015434146104675760405162461bcd60e51b815260206004820152602360248201527f53706f72747342657474696e673a20696e636f72726563742062657420616d6f6044820152621d5b9d60ea1b6064820152608401610322565b60008451116104d25760405162461bcd60e51b815260206004820152603160248201527f53706f72747342657474696e673a206163636570746f722073656c656374696f6044820152706e2063616e6e6f7420626520656d70747960781b6064820152608401610322565b6003810180546001600160a01b03191633179055600781016104f48582611df6565b5060058101805460ff19166001908117909155336000908152600460208181526040808420805495860181558452908320909301889055905460098401549251630588253160e21b81526001600160a01b039091169263162094c49261055c92889101611eb6565b600060405180830381600087803b15801561057657600080fd5b505af115801561058a573d6000803e3d6000fd5b50505050336001600160a01b0316857f69dee14ee06835835f19e5987b4bb20a240092c8878e2d5ba5c8fcd9328ef2f2866040516105c89190611ecf565b60405180910390a35050505050565b6105df6117de565b816000811180156105f257506002548111155b61060e5760405162461bcd60e51b815260040161032290611d3c565b60036000848152602001908152602001600020604051806101800160405290816000820154815260200160018201805461064790611d73565b80601f016020809104026020016040519081016040528092919081815260200182805461067390611d73565b80156106c05780601f10610695576101008083540402835291602001916106c0565b820191906000526020600020905b8154815290600101906020018083116106a357829003601f168201915b505050918352505060028201546001600160a01b039081166020830152600380840154909116604083015260048301546060830152600583015460809092019160ff1690811115610713576107136119db565b6003811115610724576107246119db565b815260200160068201805461073890611d73565b80601f016020809104026020016040519081016040528092919081815260200182805461076490611d73565b80156107b15780601f10610786576101008083540402835291602001916107b1565b820191906000526020600020905b81548152906001019060200180831161079457829003601f168201915b505050505081526020016007820180546107ca90611d73565b80601f01602080910402602001604051908101604052809291908181526020018280546107f690611d73565b80156108435780601f1061081857610100808354040283529160200191610843565b820191906000526020600020905b81548152906001019060200180831161082657829003601f168201915b5050505050815260200160088201805461085c90611d73565b80601f016020809104026020016040519081016040528092919081815260200182805461088890611d73565b80156108d55780601f106108aa576101008083540402835291602001916108d5565b820191906000526020600020905b8154815290600101906020018083116108b857829003601f168201915b5050505050815260200160098201548152602001600a8201548152602001600b8201548152505091505b50919050565b600080341161096f5760405162461bcd60e51b815260206004820152603060248201527f53706f72747342657474696e673a2062657420616d6f756e74206d757374206260448201526f0652067726561746572207468616e20360841b6064820152608401610322565b60008451116109d05760405162461bcd60e51b815260206004820152602760248201527f53706f72747342657474696e673a206d617463682049442063616e6e6f7420626044820152666520656d70747960c81b6064820152608401610322565b6000835111610a3a5760405162461bcd60e51b815260206004820152603060248201527f53706f72747342657474696e673a2063726561746f722073656c656374696f6e60448201526f2063616e6e6f7420626520656d70747960801b6064820152608401610322565b60028054906000610a4a83611ef8565b90915550506002546000805460405163621816dd60e11b81526001600160a01b039091169063c4302dba90610a859033908890600401611f11565b6020604051808303816000875af1158015610aa4573d6000803e3d6000fd5b505050506040513d601f19601f82011682018060405250810190610ac89190611f35565b9050604051806101800160405280838152602001878152602001336001600160a01b0316815260200160006001600160a01b0316815260200134815260200160006003811115610b1a57610b1a6119db565b81526020808201889052604080518083018252600080825282850191909152815180840183528181526060850152608084018690524260a085015260c09093018390528583526003825290912082518155908201516001820190610b7e9082611df6565b5060408201516002820180546001600160a01b03199081166001600160a01b0393841617909155606084015160038085018054909316919093161790556080830151600483015560a08301516005830180549192909160ff1916906001908490811115610bed57610bed6119db565b021790555060c08201516006820190610c069082611df6565b5060e08201516007820190610c1b9082611df6565b506101008201516008820190610c319082611df6565b506101208201516009820155610140820151600a82015561016090910151600b909101553360009081526004602090815260408083208054600181018255908452919092200183905551600590610c89908890611f4e565b908152604051908190036020908101822080546001810182556000918252919020018390553390610cbb908890611f4e565b6040518091039020837fcb6c5aa398a8c386b476fedf9d8bf3d1b0ebde90128d5a2603c6fa6a7d9f0b5e348986604051610cf793929190611f6a565b60405180910390a450949350505050565b6060600582604051610d1a9190611f4e565b9081526040805191829003602090810183208054808302850183019093528284529190830182828015610d6c57602002820191906000526020600020905b815481526020019060010190808311610d58575b50505050509050919050565b60036020526000908152604090208054600182018054919291610d9a90611d73565b80601f0160208091040260200160405190810160405280929190818152602001828054610dc690611d73565b8015610e135780601f10610de857610100808354040283529160200191610e13565b820191906000526020600020905b815481529060010190602001808311610df657829003601f168201915b505050600284015460038501546004860154600587015460068801805497986001600160a01b039586169894909516965091945060ff169291610e5590611d73565b80601f0160208091040260200160405190810160405280929190818152602001828054610e8190611d73565b8015610ece5780601f10610ea357610100808354040283529160200191610ece565b820191906000526020600020905b815481529060010190602001808311610eb157829003601f168201915b505050505090806007018054610ee390611d73565b80601f0160208091040260200160405190810160405280929190818152602001828054610f0f90611d73565b8015610f5c5780601f10610f3157610100808354040283529160200191610f5c565b820191906000526020600020905b815481529060010190602001808311610f3f57829003601f168201915b505050505090806008018054610f7190611d73565b80601f0160208091040260200160405190810160405280929190818152602001828054610f9d90611d73565b8015610fea5780601f10610fbf57610100808354040283529160200191610fea565b820191906000526020600020905b815481529060010190602001808311610fcd57829003601f168201915b50505050509080600901549080600a01549080600b015490508c565b6001600160a01b038116600090815260046020908152604091829020805483518184028101840190945280845260609392830182828015610d6c5760200282019190600052602060002090815481526020019060010190808311610d585750505050509050919050565b8060008111801561108357506002548111155b61109f5760405162461bcd60e51b815260040161032290611d3c565b600082815260036020526040812090600582015460ff1660038111156110c7576110c76119db565b146111145760405162461bcd60e51b815260206004820152601e60248201527f53706f72747342657474696e673a20626574206973206e6f74206f70656e00006044820152606401610322565b60028101546001600160a01b031633148061113957506001546001600160a01b031633145b6111855760405162461bcd60e51b815260206004820152601b60248201527f53706f72747342657474696e673a20756e617574686f72697a656400000000006044820152606401610322565b60058101805460ff19166003179055600281015460048201546040516000926001600160a01b031691908381818185875af1925050503d80600081146111e7576040519150601f19603f3d011682016040523d82523d6000602084013e6111ec565b606091505b505090508061124d5760405162461bcd60e51b815260206004820152602760248201527f53706f72747342657474696e673a206661696c656420746f20726566756e642060448201526631b932b0ba37b960c91b6064820152608401610322565b60405184907fe3906e8d1e2167ef706b023e6e83af697db5cd38f233c71bf5021b26b316c3a290600090a250505050565b6001546001600160a01b031633146112a85760405162461bcd60e51b815260040161032290611f93565b826000811180156112bb57506002548111155b6112d75760405162461bcd60e51b815260040161032290611d3c565b60008481526003602052604090206001600582015460ff166003811115611300576113006119db565b146113585760405162461bcd60e51b815260206004820152602260248201527f53706f72747342657474696e673a20626574206973206e6f7420616363657074604482015261195960f21b6064820152608401610322565b60008451116113c25760405162461bcd60e51b815260206004820152603060248201527f53706f72747342657474696e673a2077696e6e696e672073656c656374696f6e60448201526f2063616e6e6f7420626520656d70747960801b6064820152608401610322565b600080826006016040516020016113d99190611fd9565b60405160208183030381529060405280519060200120866040516020016114009190611f4e565b6040516020818303038152906040528051906020012014905060008360070160405160200161142f9190611fd9565b60405160208183030381529060405280519060200120876040516020016114569190611f4e565b6040516020818303038152906040528051906020012014905081806114785750805b6114d55760405162461bcd60e51b815260206004820152602860248201527f53706f72747342657474696e673a20696e76616c69642077696e6e696e67207360448201526732b632b1ba34b7b760c11b6064820152608401610322565b81156114f05760028401546001600160a01b03169250611501565b60038401546001600160a01b031692505b600084600401546002611514919061204f565b60058601805460ff191660021790559050600885016115338982611df6565b5042600b8601556000546009860154604051630588253160e21b81526001600160a01b039092169163162094c49161156f918b90600401611eb6565b600060405180830381600087803b15801561158957600080fd5b505af115801561159d573d6000803e3d6000fd5b505050506000846001600160a01b03168260405160006040518083038185875af1925050503d80600081146115ee576040519150601f19603f3d011682016040523d82523d6000602084013e6115f3565b606091505b50509050806116575760405162461bcd60e51b815260206004820152602a60248201527f53706f72747342657474696e673a206661696c656420746f207472616e736665604482015269722077696e6e696e677360b01b6064820152608401610322565b897f0f4677b608d1c1dec4b4b5d6f9187cf99f7008f74ebd6fa5d1aec36ef66deabb8a878560405161168b9392919061206c565b60405180910390a250505050505050505050565b600460205281600052604060002081815481106116bb57600080fd5b90600052602060002001600091509150505481565b815160208184018101805160058252928201918501919091209190528054829081106116bb57600080fd5b6001546001600160a01b031633146117255760405162461bcd60e51b815260040161032290611f93565b6001546040516000916001600160a01b03169047908381818185875af1925050503d8060008114611772576040519150601f19603f3d011682016040523d82523d6000602084013e611777565b606091505b50509050806117db5760405162461bcd60e51b815260206004820152602a60248201527f53706f72747342657474696e673a20656d657267656e637920776974686472616044820152691dd85b0819985a5b195960b21b6064820152608401610322565b50565b604051806101800160405280600081526020016060815260200160006001600160a01b0316815260200160006001600160a01b031681526020016000815260200160006003811115611832576118326119db565b81526020016060815260200160608152602001606081526020016000815260200160008152602001600081525090565b634e487b7160e01b600052604160045260246000fd5b600082601f83011261188957600080fd5b813567ffffffffffffffff808211156118a4576118a4611862565b604051601f8301601f19908116603f011681019082821181831017156118cc576118cc611862565b816040528381528660208588010111156118e557600080fd5b836020870160208301376000602085830101528094505050505092915050565b60008060006060848603121561191a57600080fd5b83359250602084013567ffffffffffffffff8082111561193957600080fd5b61194587838801611878565b9350604086013591508082111561195b57600080fd5b5061196886828701611878565b9150509250925092565b60006020828403121561198457600080fd5b5035919050565b60005b838110156119a657818101518382015260200161198e565b50506000910152565b600081518084526119c781602086016020860161198b565b601f01601f19169290920160200192915050565b634e487b7160e01b600052602160045260246000fd5b60048110611a0f57634e487b7160e01b600052602160045260246000fd5b9052565b602081528151602082015260006020830151610180806040850152611a3c6101a08501836119af565b91506040850151611a5860608601826001600160a01b03169052565b5060608501516001600160a01b038116608086015250608085015160a085015260a0850151611a8a60c08601826119f1565b5060c0850151601f19808685030160e0870152611aa784836119af565b935060e08701519150610100818786030181880152611ac685846119af565b945080880151925050610120818786030181880152611ae585846119af565b90880151610140888101919091528801516101608089019190915290970151929095019190915250929392505050565b600080600060608486031215611b2a57600080fd5b833567ffffffffffffffff80821115611b4257600080fd5b611b4e87838801611878565b9450602086013591508082111561193957600080fd5b600060208284031215611b7657600080fd5b813567ffffffffffffffff811115611b8d57600080fd5b611b9984828501611878565b949350505050565b6020808252825182820181905260009190848201906040850190845b81811015611bd957835183529284019291840191600101611bbd565b50909695505050505050565b60006101808e8352806020840152611bff8184018f6119af565b6001600160a01b038e811660408601528d166060850152608084018c90529050611c2c60a084018b6119f1565b82810360c0840152611c3e818a6119af565b905082810360e0840152611c5281896119af565b9050828103610100840152611c6781886119af565b6101208401969096525050610140810192909252610160909101529998505050505050505050565b80356001600160a01b0381168114611ca657600080fd5b919050565b600060208284031215611cbd57600080fd5b611cc682611c8f565b9392505050565b60008060408385031215611ce057600080fd5b611ce983611c8f565b946020939093013593505050565b60008060408385031215611d0a57600080fd5b823567ffffffffffffffff811115611d2157600080fd5b611d2d85828601611878565b95602094909401359450505050565b6020808252601d908201527f53706f72747342657474696e673a20696e76616c696420626574204944000000604082015260600190565b600181811c90821680611d8757607f821691505b6020821081036108ff57634e487b7160e01b600052602260045260246000fd5b601f821115611df157600081815260208120601f850160051c81016020861015611dce5750805b601f850160051c820191505b81811015611ded57828155600101611dda565b5050505b505050565b815167ffffffffffffffff811115611e1057611e10611862565b611e2481611e1e8454611d73565b84611da7565b602080601f831160018114611e595760008415611e415750858301515b600019600386901b1c1916600185901b178555611ded565b600085815260208120601f198616915b82811015611e8857888601518255948401946001909101908401611e69565b5085821015611ea65787850151600019600388901b60f8161c191681555b5050505050600190811b01905550565b828152604060208201526000611b9960408301846119af565b602081526000611cc660208301846119af565b634e487b7160e01b600052601160045260246000fd5b600060018201611f0a57611f0a611ee2565b5060010190565b6001600160a01b0383168152604060208201819052600090611b99908301846119af565b600060208284031215611f4757600080fd5b5051919050565b60008251611f6081846020870161198b565b9190910192915050565b838152606060208201526000611f8360608301856119af565b9050826040830152949350505050565b60208082526026908201527f53706f72747342657474696e673a2063616c6c6572206973206e6f74207468656040820152651037bbb732b960d11b606082015260800190565b6000808354611fe781611d73565b60018281168015611fff576001811461201457612043565b60ff1984168752821515830287019450612043565b8760005260208060002060005b8581101561203a5781548a820152908401908201612021565b50505082870194505b50929695505050505050565b808202811582820484141761206657612066611ee2565b92915050565b60608152600061207f60608301866119af565b6001600160a01b03949094166020830152506040015291905056fea2646970667358221220eafa56f62776b60e17a13e76b659c0449be167a0be9297f2a47d69ef29f3d4d264736f6c63430008140033",
  "linkReferences": {},
  "deployedLinkReferences": {}
}